{
  "_format": "hh-sol-artifact-1",
  "contractName": "HushmailContractv2",
  "sourceName": "contracts/HushmailContract.sol",
  "abi": [
    {
      "inputs": [],
      "stateMutability": "nonpayable",
      "type": "constructor"
    },
    {
      "anonymous": false,
      "inputs": [
        {
          "indexed": true,
          "internalType": "uint256",
          "name": "postId",
          "type": "uint256"
        },
        {
          "indexed": true,
          "internalType": "address",
          "name": "postOwner",
          "type": "address"
        },
        {
          "indexed": false,
          "internalType": "bool",
          "name": "isPublic",
          "type": "bool"
        }
      ],
      "name": "PostCreated",
      "type": "event"
    },
    {
      "anonymous": false,
      "inputs": [
        {
          "indexed": true,
          "internalType": "uint256",
          "name": "postId",
          "type": "uint256"
        },
        {
          "indexed": true,
          "internalType": "address",
          "name": "postOwner",
          "type": "address"
        }
      ],
      "name": "PostDeleted",
      "type": "event"
    },
    {
      "anonymous": false,
      "inputs": [
        {
          "indexed": true,
          "internalType": "uint256",
          "name": "postId",
          "type": "uint256"
        },
        {
          "indexed": true,
          "internalType": "address",
          "name": "postOwner",
          "type": "address"
        }
      ],
      "name": "PostUpdated",
      "type": "event"
    },
    {
      "anonymous": false,
      "inputs": [
        {
          "indexed": true,
          "internalType": "uint256",
          "name": "postId",
          "type": "uint256"
        },
        {
          "indexed": true,
          "internalType": "uint256",
          "name": "responseId",
          "type": "uint256"
        },
        {
          "indexed": true,
          "internalType": "address",
          "name": "responder",
          "type": "address"
        },
        {
          "indexed": false,
          "internalType": "bool",
          "name": "isAnonymous",
          "type": "bool"
        }
      ],
      "name": "ResponseCreated",
      "type": "event"
    },
    {
      "inputs": [],
      "name": "contractOwner",
      "outputs": [
        {
          "internalType": "address payable",
          "name": "",
          "type": "address"
        }
      ],
      "stateMutability": "view",
      "type": "function"
    },
    {
      "inputs": [
        {
          "internalType": "string",
          "name": "_content",
          "type": "string"
        },
        {
          "internalType": "bool",
          "name": "_isPublic",
          "type": "bool"
        },
        {
          "internalType": "bool",
          "name": "_manualAccepting",
          "type": "bool"
        },
        {
          "internalType": "bool",
          "name": "_isAnonymous",
          "type": "bool"
        },
        {
          "internalType": "string",
          "name": "_name",
          "type": "string"
        },
        {
          "internalType": "string",
          "name": "_username",
          "type": "string"
        },
        {
          "internalType": "string",
          "name": "_avatarUrl",
          "type": "string"
        },
        {
          "internalType": "uint256",
          "name": "_acceptingUntil",
          "type": "uint256"
        }
      ],
      "name": "createPost",
      "outputs": [],
      "stateMutability": "payable",
      "type": "function"
    },
    {
      "inputs": [
        {
          "internalType": "uint256",
          "name": "_postId",
          "type": "uint256"
        }
      ],
      "name": "deletePost",
      "outputs": [],
      "stateMutability": "nonpayable",
      "type": "function"
    },
    {
      "inputs": [],
      "name": "getAllPosts",
      "outputs": [
        {
          "components": [
            {
              "internalType": "uint256",
              "name": "postId",
              "type": "uint256"
            },
            {
              "internalType": "string",
              "name": "content",
              "type": "string"
            },
            {
              "internalType": "address payable",
              "name": "postOwner",
              "type": "address"
            },
            {
              "internalType": "bool",
              "name": "isPublic",
              "type": "bool"
            },
            {
              "internalType": "bool",
              "name": "manualAcceting",
              "type": "bool"
            },
            {
              "internalType": "uint256",
              "name": "acceptingUntil",
              "type": "uint256"
            },
            {
              "internalType": "uint256",
              "name": "creationTime",
              "type": "uint256"
            },
            {
              "internalType": "uint256",
              "name": "totalEarnings",
              "type": "uint256"
            },
            {
              "internalType": "uint256",
              "name": "totalResponses",
              "type": "uint256"
            },
            {
              "components": [
                {
                  "internalType": "string",
                  "name": "name",
                  "type": "string"
                },
                {
                  "internalType": "string",
                  "name": "username",
                  "type": "string"
                },
                {
                  "internalType": "string",
                  "name": "avatarUrl",
                  "type": "string"
                }
              ],
              "internalType": "struct HushmailContractv2.Identity",
              "name": "identity",
              "type": "tuple"
            },
            {
              "components": [
                {
                  "internalType": "uint256",
                  "name": "refPostId",
                  "type": "uint256"
                },
                {
                  "internalType": "uint256",
                  "name": "responseId",
                  "type": "uint256"
                },
                {
                  "internalType": "address",
                  "name": "responder",
                  "type": "address"
                },
                {
                  "internalType": "string",
                  "name": "content",
                  "type": "string"
                },
                {
                  "internalType": "uint256",
                  "name": "amountTransferredInWei",
                  "type": "uint256"
                },
                {
                  "internalType": "uint256",
                  "name": "creationTime",
                  "type": "uint256"
                },
                {
                  "components": [
                    {
                      "internalType": "string",
                      "name": "name",
                      "type": "string"
                    },
                    {
                      "internalType": "string",
                      "name": "username",
                      "type": "string"
                    },
                    {
                      "internalType": "string",
                      "name": "avatarUrl",
                      "type": "string"
                    }
                  ],
                  "internalType": "struct HushmailContractv2.Identity",
                  "name": "identity",
                  "type": "tuple"
                }
              ],
              "internalType": "struct HushmailContractv2.Response[]",
              "name": "responses",
              "type": "tuple[]"
            }
          ],
          "internalType": "struct HushmailContractv2.Post[]",
          "name": "",
          "type": "tuple[]"
        }
      ],
      "stateMutability": "view",
      "type": "function"
    },
    {
      "inputs": [
        {
          "internalType": "uint256",
          "name": "_postId",
          "type": "uint256"
        }
      ],
      "name": "getPostResponses",
      "outputs": [
        {
          "components": [
            {
              "internalType": "uint256",
              "name": "refPostId",
              "type": "uint256"
            },
            {
              "internalType": "uint256",
              "name": "responseId",
              "type": "uint256"
            },
            {
              "internalType": "address",
              "name": "responder",
              "type": "address"
            },
            {
              "internalType": "string",
              "name": "content",
              "type": "string"
            },
            {
              "internalType": "uint256",
              "name": "amountTransferredInWei",
              "type": "uint256"
            },
            {
              "internalType": "uint256",
              "name": "creationTime",
              "type": "uint256"
            },
            {
              "components": [
                {
                  "internalType": "string",
                  "name": "name",
                  "type": "string"
                },
                {
                  "internalType": "string",
                  "name": "username",
                  "type": "string"
                },
                {
                  "internalType": "string",
                  "name": "avatarUrl",
                  "type": "string"
                }
              ],
              "internalType": "struct HushmailContractv2.Identity",
              "name": "identity",
              "type": "tuple"
            }
          ],
          "internalType": "struct HushmailContractv2.Response[]",
          "name": "",
          "type": "tuple[]"
        }
      ],
      "stateMutability": "view",
      "type": "function"
    },
    {
      "inputs": [
        {
          "internalType": "uint256",
          "name": "startIndex",
          "type": "uint256"
        },
        {
          "internalType": "uint256",
          "name": "batchSize",
          "type": "uint256"
        }
      ],
      "name": "getPostsByPage",
      "outputs": [
        {
          "components": [
            {
              "internalType": "uint256",
              "name": "postId",
              "type": "uint256"
            },
            {
              "internalType": "string",
              "name": "content",
              "type": "string"
            },
            {
              "internalType": "address payable",
              "name": "postOwner",
              "type": "address"
            },
            {
              "internalType": "bool",
              "name": "isPublic",
              "type": "bool"
            },
            {
              "internalType": "bool",
              "name": "manualAcceting",
              "type": "bool"
            },
            {
              "internalType": "uint256",
              "name": "acceptingUntil",
              "type": "uint256"
            },
            {
              "internalType": "uint256",
              "name": "creationTime",
              "type": "uint256"
            },
            {
              "internalType": "uint256",
              "name": "totalEarnings",
              "type": "uint256"
            },
            {
              "internalType": "uint256",
              "name": "totalResponses",
              "type": "uint256"
            },
            {
              "components": [
                {
                  "internalType": "string",
                  "name": "name",
                  "type": "string"
                },
                {
                  "internalType": "string",
                  "name": "username",
                  "type": "string"
                },
                {
                  "internalType": "string",
                  "name": "avatarUrl",
                  "type": "string"
                }
              ],
              "internalType": "struct HushmailContractv2.Identity",
              "name": "identity",
              "type": "tuple"
            },
            {
              "components": [
                {
                  "internalType": "uint256",
                  "name": "refPostId",
                  "type": "uint256"
                },
                {
                  "internalType": "uint256",
                  "name": "responseId",
                  "type": "uint256"
                },
                {
                  "internalType": "address",
                  "name": "responder",
                  "type": "address"
                },
                {
                  "internalType": "string",
                  "name": "content",
                  "type": "string"
                },
                {
                  "internalType": "uint256",
                  "name": "amountTransferredInWei",
                  "type": "uint256"
                },
                {
                  "internalType": "uint256",
                  "name": "creationTime",
                  "type": "uint256"
                },
                {
                  "components": [
                    {
                      "internalType": "string",
                      "name": "name",
                      "type": "string"
                    },
                    {
                      "internalType": "string",
                      "name": "username",
                      "type": "string"
                    },
                    {
                      "internalType": "string",
                      "name": "avatarUrl",
                      "type": "string"
                    }
                  ],
                  "internalType": "struct HushmailContractv2.Identity",
                  "name": "identity",
                  "type": "tuple"
                }
              ],
              "internalType": "struct HushmailContractv2.Response[]",
              "name": "responses",
              "type": "tuple[]"
            }
          ],
          "internalType": "struct HushmailContractv2.Post[]",
          "name": "",
          "type": "tuple[]"
        }
      ],
      "stateMutability": "view",
      "type": "function"
    },
    {
      "inputs": [
        {
          "internalType": "address",
          "name": "_user",
          "type": "address"
        }
      ],
      "name": "getPostsByUser",
      "outputs": [
        {
          "components": [
            {
              "internalType": "uint256",
              "name": "postId",
              "type": "uint256"
            },
            {
              "internalType": "string",
              "name": "content",
              "type": "string"
            },
            {
              "internalType": "address payable",
              "name": "postOwner",
              "type": "address"
            },
            {
              "internalType": "bool",
              "name": "isPublic",
              "type": "bool"
            },
            {
              "internalType": "bool",
              "name": "manualAcceting",
              "type": "bool"
            },
            {
              "internalType": "uint256",
              "name": "acceptingUntil",
              "type": "uint256"
            },
            {
              "internalType": "uint256",
              "name": "creationTime",
              "type": "uint256"
            },
            {
              "internalType": "uint256",
              "name": "totalEarnings",
              "type": "uint256"
            },
            {
              "internalType": "uint256",
              "name": "totalResponses",
              "type": "uint256"
            },
            {
              "components": [
                {
                  "internalType": "string",
                  "name": "name",
                  "type": "string"
                },
                {
                  "internalType": "string",
                  "name": "username",
                  "type": "string"
                },
                {
                  "internalType": "string",
                  "name": "avatarUrl",
                  "type": "string"
                }
              ],
              "internalType": "struct HushmailContractv2.Identity",
              "name": "identity",
              "type": "tuple"
            },
            {
              "components": [
                {
                  "internalType": "uint256",
                  "name": "refPostId",
                  "type": "uint256"
                },
                {
                  "internalType": "uint256",
                  "name": "responseId",
                  "type": "uint256"
                },
                {
                  "internalType": "address",
                  "name": "responder",
                  "type": "address"
                },
                {
                  "internalType": "string",
                  "name": "content",
                  "type": "string"
                },
                {
                  "internalType": "uint256",
                  "name": "amountTransferredInWei",
                  "type": "uint256"
                },
                {
                  "internalType": "uint256",
                  "name": "creationTime",
                  "type": "uint256"
                },
                {
                  "components": [
                    {
                      "internalType": "string",
                      "name": "name",
                      "type": "string"
                    },
                    {
                      "internalType": "string",
                      "name": "username",
                      "type": "string"
                    },
                    {
                      "internalType": "string",
                      "name": "avatarUrl",
                      "type": "string"
                    }
                  ],
                  "internalType": "struct HushmailContractv2.Identity",
                  "name": "identity",
                  "type": "tuple"
                }
              ],
              "internalType": "struct HushmailContractv2.Response[]",
              "name": "responses",
              "type": "tuple[]"
            }
          ],
          "internalType": "struct HushmailContractv2.Post[]",
          "name": "",
          "type": "tuple[]"
        }
      ],
      "stateMutability": "view",
      "type": "function"
    },
    {
      "inputs": [
        {
          "internalType": "uint256",
          "name": "_postId",
          "type": "uint256"
        },
        {
          "internalType": "uint256",
          "name": "startIndex",
          "type": "uint256"
        },
        {
          "internalType": "uint256",
          "name": "batchSize",
          "type": "uint256"
        }
      ],
      "name": "getResponsesByPage",
      "outputs": [
        {
          "components": [
            {
              "internalType": "uint256",
              "name": "refPostId",
              "type": "uint256"
            },
            {
              "internalType": "uint256",
              "name": "responseId",
              "type": "uint256"
            },
            {
              "internalType": "address",
              "name": "responder",
              "type": "address"
            },
            {
              "internalType": "string",
              "name": "content",
              "type": "string"
            },
            {
              "internalType": "uint256",
              "name": "amountTransferredInWei",
              "type": "uint256"
            },
            {
              "internalType": "uint256",
              "name": "creationTime",
              "type": "uint256"
            },
            {
              "components": [
                {
                  "internalType": "string",
                  "name": "name",
                  "type": "string"
                },
                {
                  "internalType": "string",
                  "name": "username",
                  "type": "string"
                },
                {
                  "internalType": "string",
                  "name": "avatarUrl",
                  "type": "string"
                }
              ],
              "internalType": "struct HushmailContractv2.Identity",
              "name": "identity",
              "type": "tuple"
            }
          ],
          "internalType": "struct HushmailContractv2.Response[]",
          "name": "",
          "type": "tuple[]"
        }
      ],
      "stateMutability": "view",
      "type": "function"
    },
    {
      "inputs": [],
      "name": "platformFee",
      "outputs": [
        {
          "internalType": "uint256",
          "name": "",
          "type": "uint256"
        }
      ],
      "stateMutability": "view",
      "type": "function"
    },
    {
      "inputs": [],
      "name": "postCounter",
      "outputs": [
        {
          "internalType": "uint256",
          "name": "",
          "type": "uint256"
        }
      ],
      "stateMutability": "view",
      "type": "function"
    },
    {
      "inputs": [
        {
          "internalType": "uint256",
          "name": "",
          "type": "uint256"
        },
        {
          "internalType": "uint256",
          "name": "",
          "type": "uint256"
        }
      ],
      "name": "postResponses",
      "outputs": [
        {
          "internalType": "uint256",
          "name": "refPostId",
          "type": "uint256"
        },
        {
          "internalType": "uint256",
          "name": "responseId",
          "type": "uint256"
        },
        {
          "internalType": "address",
          "name": "responder",
          "type": "address"
        },
        {
          "internalType": "string",
          "name": "content",
          "type": "string"
        },
        {
          "internalType": "uint256",
          "name": "amountTransferredInWei",
          "type": "uint256"
        },
        {
          "internalType": "uint256",
          "name": "creationTime",
          "type": "uint256"
        },
        {
          "components": [
            {
              "internalType": "string",
              "name": "name",
              "type": "string"
            },
            {
              "internalType": "string",
              "name": "username",
              "type": "string"
            },
            {
              "internalType": "string",
              "name": "avatarUrl",
              "type": "string"
            }
          ],
          "internalType": "struct HushmailContractv2.Identity",
          "name": "identity",
          "type": "tuple"
        }
      ],
      "stateMutability": "view",
      "type": "function"
    },
    {
      "inputs": [
        {
          "internalType": "uint256",
          "name": "",
          "type": "uint256"
        }
      ],
      "name": "posts",
      "outputs": [
        {
          "internalType": "uint256",
          "name": "postId",
          "type": "uint256"
        },
        {
          "internalType": "string",
          "name": "content",
          "type": "string"
        },
        {
          "internalType": "address payable",
          "name": "postOwner",
          "type": "address"
        },
        {
          "internalType": "bool",
          "name": "isPublic",
          "type": "bool"
        },
        {
          "internalType": "bool",
          "name": "manualAcceting",
          "type": "bool"
        },
        {
          "internalType": "uint256",
          "name": "acceptingUntil",
          "type": "uint256"
        },
        {
          "internalType": "uint256",
          "name": "creationTime",
          "type": "uint256"
        },
        {
          "internalType": "uint256",
          "name": "totalEarnings",
          "type": "uint256"
        },
        {
          "internalType": "uint256",
          "name": "totalResponses",
          "type": "uint256"
        },
        {
          "components": [
            {
              "internalType": "string",
              "name": "name",
              "type": "string"
            },
            {
              "internalType": "string",
              "name": "username",
              "type": "string"
            },
            {
              "internalType": "string",
              "name": "avatarUrl",
              "type": "string"
            }
          ],
          "internalType": "struct HushmailContractv2.Identity",
          "name": "identity",
          "type": "tuple"
        }
      ],
      "stateMutability": "view",
      "type": "function"
    },
    {
      "inputs": [
        {
          "internalType": "uint256",
          "name": "_postId",
          "type": "uint256"
        },
        {
          "internalType": "string",
          "name": "_content",
          "type": "string"
        },
        {
          "internalType": "bool",
          "name": "_isAnonymous",
          "type": "bool"
        },
        {
          "internalType": "string",
          "name": "_name",
          "type": "string"
        },
        {
          "internalType": "string",
          "name": "_username",
          "type": "string"
        },
        {
          "internalType": "string",
          "name": "_avatarUrl",
          "type": "string"
        }
      ],
      "name": "respondToPost",
      "outputs": [],
      "stateMutability": "payable",
      "type": "function"
    },
    {
      "inputs": [],
      "name": "responseCounter",
      "outputs": [
        {
          "internalType": "uint256",
          "name": "",
          "type": "uint256"
        }
      ],
      "stateMutability": "view",
      "type": "function"
    },
    {
      "inputs": [],
      "name": "responseFeePercentage",
      "outputs": [
        {
          "internalType": "uint256",
          "name": "",
          "type": "uint256"
        }
      ],
      "stateMutability": "view",
      "type": "function"
    },
    {
      "inputs": [
        {
          "internalType": "uint256",
          "name": "_postId",
          "type": "uint256"
        },
        {
          "internalType": "string",
          "name": "_newContent",
          "type": "string"
        },
        {
          "internalType": "bool",
          "name": "_newIsPublic",
          "type": "bool"
        },
        {
          "internalType": "bool",
          "name": "_newManualAccepting",
          "type": "bool"
        },
        {
          "internalType": "uint256",
          "name": "_newAcceptingUntil",
          "type": "uint256"
        }
      ],
      "name": "updatePost",
      "outputs": [],
      "stateMutability": "nonpayable",
      "type": "function"
    },
    {
      "inputs": [
        {
          "internalType": "address",
          "name": "",
          "type": "address"
        },
        {
          "internalType": "uint256",
          "name": "",
          "type": "uint256"
        }
      ],
      "name": "userPosts",
      "outputs": [
        {
          "internalType": "uint256",
          "name": "",
          "type": "uint256"
        }
      ],
      "stateMutability": "view",
      "type": "function"
    }
  ],
  "bytecode": "0x608060405266038d7ea4c680006006556032600755348015601f57600080fd5b5033600560006101000a81548173ffffffffffffffffffffffffffffffffffffffff021916908373ffffffffffffffffffffffffffffffffffffffff16021790555061540c806100706000396000f3fe6080604052600436106100fe5760003560e01c8063381fc4b5116100955780638064d149116100645780638064d1491461033857806386fa136a14610375578063c039d879146103b2578063ce606ee0146103f5578063f1caefe414610420576100fe565b8063381fc4b5146102aa578063470e5b60146102d557806361ba8bba146103005780637d6196661461031c576100fe565b806323e1686e116100d157806323e1686e146101da57806326232a2e146102175780632853894914610242578063305611001461027f576100fe565b806308cece7614610103578063094cd5ee1461014057806309b3d75e146101695780630b1e7f8314610194575b600080fd5b34801561010f57600080fd5b5061012a60048036038101906101259190613ba7565b610449565b6040516101379190613e9d565b60405180910390f35b34801561014c57600080fd5b5061016760048036038101906101629190613ebf565b610990565b005b34801561017557600080fd5b5061017e610cd4565b60405161018b9190613efb565b60405180910390f35b3480156101a057600080fd5b506101bb60048036038101906101b69190613ebf565b610cda565b6040516101d19a99989796959493929190613ffa565b60405180910390f35b3480156101e657600080fd5b5061020160048036038101906101fc91906140a4565b610fb0565b60405161020e9190614347565b60405180910390f35b34801561022357600080fd5b5061022c6117b2565b6040516102399190613efb565b60405180910390f35b34801561024e57600080fd5b5061026960048036038101906102649190614395565b6117b8565b6040516102769190614347565b60405180910390f35b34801561028b57600080fd5b50610294611f72565b6040516102a19190614347565b60405180910390f35b3480156102b657600080fd5b506102bf612694565b6040516102cc9190613efb565b60405180910390f35b3480156102e157600080fd5b506102ea61269a565b6040516102f79190613efb565b60405180910390f35b61031a60048036038101906103159190614523565b6126a0565b005b61033660048036038101906103319190614620565b612c5e565b005b34801561034457600080fd5b5061035f600480360381019061035a9190614746565b613012565b60405161036c9190613efb565b60405180910390f35b34801561038157600080fd5b5061039c60048036038101906103979190613ebf565b613043565b6040516103a99190613e9d565b60405180910390f35b3480156103be57600080fd5b506103d960048036038101906103d491906140a4565b6133ed565b6040516103ec9796959493929190614795565b60405180910390f35b34801561040157600080fd5b5061040a6136b4565b6040516104179190614812565b60405180910390f35b34801561042c57600080fd5b506104476004803603810190610442919061482d565b6136da565b005b6060600080600086815260200190815260200160002060000154036104a3576040517f08c379a000000000000000000000000000000000000000000000000000000000815260040161049a90614910565b60405180910390fd5b6000831180156104c85750600080858152602001908152602001600020600601548311155b610507576040517f08c379a00000000000000000000000000000000000000000000000000000000081526004016104fe9061497c565b60405180910390fd5b6000821161054a576040517f08c379a000000000000000000000000000000000000000000000000000000000815260040161054190614a0e565b60405180910390fd5b60006001838561055a9190614a5d565b6105649190614a91565b90506000808681526020019081526020016000206006015481111561059c576000808681526020019081526020016000206006015490505b6000600185836105ac9190614a91565b6105b69190614a5d565b905060008167ffffffffffffffff8111156105d4576105d36143cc565b5b60405190808252806020026020018201604052801561060d57816020015b6105fa613943565b8152602001906001900390816105f25790505b5090506000808790505b84811161098157600260008a815260200190815260200160002060018261063e9190614a91565b8154811061064f5761064e614ac5565b5b90600052602060002090600902016040518060e001604052908160008201548152602001600182015481526020016002820160009054906101000a900473ffffffffffffffffffffffffffffffffffffffff1673ffffffffffffffffffffffffffffffffffffffff1673ffffffffffffffffffffffffffffffffffffffff1681526020016003820180546106e290614b23565b80601f016020809104026020016040519081016040528092919081815260200182805461070e90614b23565b801561075b5780601f106107305761010080835404028352916020019161075b565b820191906000526020600020905b81548152906001019060200180831161073e57829003601f168201915b5050505050815260200160048201548152602001600582015481526020016006820160405180606001604052908160008201805461079890614b23565b80601f01602080910402602001604051908101604052809291908181526020018280546107c490614b23565b80156108115780601f106107e657610100808354040283529160200191610811565b820191906000526020600020905b8154815290600101906020018083116107f457829003601f168201915b5050505050815260200160018201805461082a90614b23565b80601f016020809104026020016040519081016040528092919081815260200182805461085690614b23565b80156108a35780601f10610878576101008083540402835291602001916108a3565b820191906000526020600020905b81548152906001019060200180831161088657829003601f168201915b505050505081526020016002820180546108bc90614b23565b80601f01602080910402602001604051908101604052809291908181526020018280546108e890614b23565b80156109355780601f1061090a57610100808354040283529160200191610935565b820191906000526020600020905b81548152906001019060200180831161091857829003601f168201915b5050505050815250508152505083838151811061095557610954614ac5565b5b6020026020010181905250818061096b90614b54565b925050808061097990614b54565b915050610617565b50819450505050509392505050565b600080600083815260200190815260200160002060000154036109e8576040517f08c379a00000000000000000000000000000000000000000000000000000000081526004016109df90614910565b60405180910390fd5b3373ffffffffffffffffffffffffffffffffffffffff1660008083815260200190815260200160002060020160009054906101000a900473ffffffffffffffffffffffffffffffffffffffff1673ffffffffffffffffffffffffffffffffffffffff1614610a8b576040517f08c379a0000000000000000000000000000000000000000000000000000000008152600401610a8290614c0e565b60405180910390fd5b6000600160003373ffffffffffffffffffffffffffffffffffffffff1673ffffffffffffffffffffffffffffffffffffffff168152602001908152602001600020905060005b8180549050811015610b895782828281548110610af157610af0614ac5565b5b906000526020600020015403610b7c578160018380549050610b139190614a91565b81548110610b2457610b23614ac5565b5b9060005260206000200154828281548110610b4257610b41614ac5565b5b906000526020600020018190555081805480610b6157610b60614c2e565b5b60019003818190600052602060002001600090559055610b89565b8080600101915050610ad1565b50600080838152602001908152602001600020600080820160009055600182016000610bb5919061399c565b6002820160006101000a81549073ffffffffffffffffffffffffffffffffffffffff02191690556002820160146101000a81549060ff02191690556002820160156101000a81549060ff021916905560038201600090556004820160009055600582016000905560068201600090556007820160008082016000610c39919061399c565b600182016000610c49919061399c565b600282016000610c59919061399c565b5050600a82016000610c6b91906139dc565b5050600260008381526020019081526020016000206000610c8c91906139dc565b3373ffffffffffffffffffffffffffffffffffffffff16827f1da4a15b15417b54b8b3bea2ca87cfc4c94f0fee7d86702d0dab9e2906e7a7d360405160405180910390a35050565b60035481565b6000602052806000526040600020600091509050806000015490806001018054610d0390614b23565b80601f0160208091040260200160405190810160405280929190818152602001828054610d2f90614b23565b8015610d7c5780601f10610d5157610100808354040283529160200191610d7c565b820191906000526020600020905b815481529060010190602001808311610d5f57829003601f168201915b5050505050908060020160009054906101000a900473ffffffffffffffffffffffffffffffffffffffff16908060020160149054906101000a900460ff16908060020160159054906101000a900460ff169080600301549080600401549080600501549080600601549080600701604051806060016040529081600082018054610e0590614b23565b80601f0160208091040260200160405190810160405280929190818152602001828054610e3190614b23565b8015610e7e5780601f10610e5357610100808354040283529160200191610e7e565b820191906000526020600020905b815481529060010190602001808311610e6157829003601f168201915b50505050508152602001600182018054610e9790614b23565b80601f0160208091040260200160405190810160405280929190818152602001828054610ec390614b23565b8015610f105780601f10610ee557610100808354040283529160200191610f10565b820191906000526020600020905b815481529060010190602001808311610ef357829003601f168201915b50505050508152602001600282018054610f2990614b23565b80601f0160208091040260200160405190810160405280929190818152602001828054610f5590614b23565b8015610fa25780601f10610f7757610100808354040283529160200191610fa2565b820191906000526020600020905b815481529060010190602001808311610f8557829003601f168201915b50505050508152505090508a565b6060600083118015610fc457506003548311155b611003576040517f08c379a0000000000000000000000000000000000000000000000000000000008152600401610ffa9061497c565b60405180910390fd5b60008211611046576040517f08c379a000000000000000000000000000000000000000000000000000000000815260040161103d90614a0e565b60405180910390fd5b6000600183856110569190614a5d565b6110609190614a91565b90506003548111156110725760035490505b6000600185836110829190614a91565b61108c9190614a5d565b905060008167ffffffffffffffff8111156110aa576110a96143cc565b5b6040519080825280602002602001820160405280156110e357816020015b6110d0613a00565b8152602001906001900390816110c85790505b5090506000808790505b8481116117a457600080828152602001908152602001600020604051806101600160405290816000820154815260200160018201805461112c90614b23565b80601f016020809104026020016040519081016040528092919081815260200182805461115890614b23565b80156111a55780601f1061117a576101008083540402835291602001916111a5565b820191906000526020600020905b81548152906001019060200180831161118857829003601f168201915b505050505081526020016002820160009054906101000a900473ffffffffffffffffffffffffffffffffffffffff1673ffffffffffffffffffffffffffffffffffffffff1673ffffffffffffffffffffffffffffffffffffffff1681526020016002820160149054906101000a900460ff161515151581526020016002820160159054906101000a900460ff16151515158152602001600382015481526020016004820154815260200160058201548152602001600682015481526020016007820160405180606001604052908160008201805461128290614b23565b80601f01602080910402602001604051908101604052809291908181526020018280546112ae90614b23565b80156112fb5780601f106112d0576101008083540402835291602001916112fb565b820191906000526020600020905b8154815290600101906020018083116112de57829003601f168201915b5050505050815260200160018201805461131490614b23565b80601f016020809104026020016040519081016040528092919081815260200182805461134090614b23565b801561138d5780601f106113625761010080835404028352916020019161138d565b820191906000526020600020905b81548152906001019060200180831161137057829003601f168201915b505050505081526020016002820180546113a690614b23565b80601f01602080910402602001604051908101604052809291908181526020018280546113d290614b23565b801561141f5780601f106113f45761010080835404028352916020019161141f565b820191906000526020600020905b81548152906001019060200180831161140257829003601f168201915b5050505050815250508152602001600a8201805480602002602001604051908101604052809291908181526020016000905b8282101561175d57838290600052602060002090600902016040518060e001604052908160008201548152602001600182015481526020016002820160009054906101000a900473ffffffffffffffffffffffffffffffffffffffff1673ffffffffffffffffffffffffffffffffffffffff1673ffffffffffffffffffffffffffffffffffffffff1681526020016003820180546114ee90614b23565b80601f016020809104026020016040519081016040528092919081815260200182805461151a90614b23565b80156115675780601f1061153c57610100808354040283529160200191611567565b820191906000526020600020905b81548152906001019060200180831161154a57829003601f168201915b505050505081526020016004820154815260200160058201548152602001600682016040518060600160405290816000820180546115a490614b23565b80601f01602080910402602001604051908101604052809291908181526020018280546115d090614b23565b801561161d5780601f106115f25761010080835404028352916020019161161d565b820191906000526020600020905b81548152906001019060200180831161160057829003601f168201915b5050505050815260200160018201805461163690614b23565b80601f016020809104026020016040519081016040528092919081815260200182805461166290614b23565b80156116af5780601f10611684576101008083540402835291602001916116af565b820191906000526020600020905b81548152906001019060200180831161169257829003601f168201915b505050505081526020016002820180546116c890614b23565b80601f01602080910402602001604051908101604052809291908181526020018280546116f490614b23565b80156117415780601f1061171657610100808354040283529160200191611741565b820191906000526020600020905b81548152906001019060200180831161172457829003601f168201915b5050505050815250508152505081526020019060010190611451565b505050508152505083838151811061177857611777614ac5565b5b6020026020010181905250818061178e90614b54565b925050808061179c90614b54565b9150506110ed565b508194505050505092915050565b60065481565b60606000600160008473ffffffffffffffffffffffffffffffffffffffff1673ffffffffffffffffffffffffffffffffffffffff16815260200190815260200160002080548060200260200160405190810160405280929190818152602001828054801561184557602002820191906000526020600020905b815481526020019060010190808311611831575b505050505090506000815167ffffffffffffffff811115611869576118686143cc565b5b6040519080825280602002602001820160405280156118a257816020015b61188f613a00565b8152602001906001900390816118875790505b50905060005b8251811015611f67576000808483815181106118c7576118c6614ac5565b5b60200260200101518152602001908152602001600020604051806101600160405290816000820154815260200160018201805461190390614b23565b80601f016020809104026020016040519081016040528092919081815260200182805461192f90614b23565b801561197c5780601f106119515761010080835404028352916020019161197c565b820191906000526020600020905b81548152906001019060200180831161195f57829003601f168201915b505050505081526020016002820160009054906101000a900473ffffffffffffffffffffffffffffffffffffffff1673ffffffffffffffffffffffffffffffffffffffff1673ffffffffffffffffffffffffffffffffffffffff1681526020016002820160149054906101000a900460ff161515151581526020016002820160159054906101000a900460ff161515151581526020016003820154815260200160048201548152602001600582015481526020016006820154815260200160078201604051806060016040529081600082018054611a5990614b23565b80601f0160208091040260200160405190810160405280929190818152602001828054611a8590614b23565b8015611ad25780601f10611aa757610100808354040283529160200191611ad2565b820191906000526020600020905b815481529060010190602001808311611ab557829003601f168201915b50505050508152602001600182018054611aeb90614b23565b80601f0160208091040260200160405190810160405280929190818152602001828054611b1790614b23565b8015611b645780601f10611b3957610100808354040283529160200191611b64565b820191906000526020600020905b815481529060010190602001808311611b4757829003601f168201915b50505050508152602001600282018054611b7d90614b23565b80601f0160208091040260200160405190810160405280929190818152602001828054611ba990614b23565b8015611bf65780601f10611bcb57610100808354040283529160200191611bf6565b820191906000526020600020905b815481529060010190602001808311611bd957829003601f168201915b5050505050815250508152602001600a8201805480602002602001604051908101604052809291908181526020016000905b82821015611f3457838290600052602060002090600902016040518060e001604052908160008201548152602001600182015481526020016002820160009054906101000a900473ffffffffffffffffffffffffffffffffffffffff1673ffffffffffffffffffffffffffffffffffffffff1673ffffffffffffffffffffffffffffffffffffffff168152602001600382018054611cc590614b23565b80601f0160208091040260200160405190810160405280929190818152602001828054611cf190614b23565b8015611d3e5780601f10611d1357610100808354040283529160200191611d3e565b820191906000526020600020905b815481529060010190602001808311611d2157829003601f168201915b50505050508152602001600482015481526020016005820154815260200160068201604051806060016040529081600082018054611d7b90614b23565b80601f0160208091040260200160405190810160405280929190818152602001828054611da790614b23565b8015611df45780601f10611dc957610100808354040283529160200191611df4565b820191906000526020600020905b815481529060010190602001808311611dd757829003601f168201915b50505050508152602001600182018054611e0d90614b23565b80601f0160208091040260200160405190810160405280929190818152602001828054611e3990614b23565b8015611e865780601f10611e5b57610100808354040283529160200191611e86565b820191906000526020600020905b815481529060010190602001808311611e6957829003601f168201915b50505050508152602001600282018054611e9f90614b23565b80601f0160208091040260200160405190810160405280929190818152602001828054611ecb90614b23565b8015611f185780601f10611eed57610100808354040283529160200191611f18565b820191906000526020600020905b815481529060010190602001808311611efb57829003601f168201915b5050505050815250508152505081526020019060010190611c28565b5050505081525050828281518110611f4f57611f4e614ac5565b5b602002602001018190525080806001019150506118a8565b508092505050919050565b6060600060035467ffffffffffffffff811115611f9257611f916143cc565b5b604051908082528060200260200182016040528015611fcb57816020015b611fb8613a00565b815260200190600190039081611fb05790505b5090506000600190505b600354811161268c57600080828152602001908152602001600020604051806101600160405290816000820154815260200160018201805461201690614b23565b80601f016020809104026020016040519081016040528092919081815260200182805461204290614b23565b801561208f5780601f106120645761010080835404028352916020019161208f565b820191906000526020600020905b81548152906001019060200180831161207257829003601f168201915b505050505081526020016002820160009054906101000a900473ffffffffffffffffffffffffffffffffffffffff1673ffffffffffffffffffffffffffffffffffffffff1673ffffffffffffffffffffffffffffffffffffffff1681526020016002820160149054906101000a900460ff161515151581526020016002820160159054906101000a900460ff16151515158152602001600382015481526020016004820154815260200160058201548152602001600682015481526020016007820160405180606001604052908160008201805461216c90614b23565b80601f016020809104026020016040519081016040528092919081815260200182805461219890614b23565b80156121e55780601f106121ba576101008083540402835291602001916121e5565b820191906000526020600020905b8154815290600101906020018083116121c857829003601f168201915b505050505081526020016001820180546121fe90614b23565b80601f016020809104026020016040519081016040528092919081815260200182805461222a90614b23565b80156122775780601f1061224c57610100808354040283529160200191612277565b820191906000526020600020905b81548152906001019060200180831161225a57829003601f168201915b5050505050815260200160028201805461229090614b23565b80601f01602080910402602001604051908101604052809291908181526020018280546122bc90614b23565b80156123095780601f106122de57610100808354040283529160200191612309565b820191906000526020600020905b8154815290600101906020018083116122ec57829003601f168201915b5050505050815250508152602001600a8201805480602002602001604051908101604052809291908181526020016000905b8282101561264757838290600052602060002090600902016040518060e001604052908160008201548152602001600182015481526020016002820160009054906101000a900473ffffffffffffffffffffffffffffffffffffffff1673ffffffffffffffffffffffffffffffffffffffff1673ffffffffffffffffffffffffffffffffffffffff1681526020016003820180546123d890614b23565b80601f016020809104026020016040519081016040528092919081815260200182805461240490614b23565b80156124515780601f1061242657610100808354040283529160200191612451565b820191906000526020600020905b81548152906001019060200180831161243457829003601f168201915b5050505050815260200160048201548152602001600582015481526020016006820160405180606001604052908160008201805461248e90614b23565b80601f01602080910402602001604051908101604052809291908181526020018280546124ba90614b23565b80156125075780601f106124dc57610100808354040283529160200191612507565b820191906000526020600020905b8154815290600101906020018083116124ea57829003601f168201915b5050505050815260200160018201805461252090614b23565b80601f016020809104026020016040519081016040528092919081815260200182805461254c90614b23565b80156125995780601f1061256e57610100808354040283529160200191612599565b820191906000526020600020905b81548152906001019060200180831161257c57829003601f168201915b505050505081526020016002820180546125b290614b23565b80601f01602080910402602001604051908101604052809291908181526020018280546125de90614b23565b801561262b5780601f106126005761010080835404028352916020019161262b565b820191906000526020600020905b81548152906001019060200180831161260e57829003601f168201915b505050505081525050815250508152602001906001019061233b565b50505050815250508260018361265d9190614a91565b8151811061266e5761266d614ac5565b5b6020026020010181905250808061268490614b54565b915050611fd5565b508091505090565b60045481565b60075481565b600080600088815260200190815260200160002060000154036126f8576040517f08c379a00000000000000000000000000000000000000000000000000000000081526004016126ef90614910565b60405180910390fd5b60035486111561273d576040517f08c379a000000000000000000000000000000000000000000000000000000000815260040161273490614910565b60405180910390fd5b6000855111612781576040517f08c379a000000000000000000000000000000000000000000000000000000000815260040161277890614ca9565b60405180910390fd5b60003490506000808211156127f057612710600754836127a19190614cc9565b6127ab9190614d3a565b90508082116127ef576040517f08c379a00000000000000000000000000000000000000000000000000000000081526004016127e690614ddd565b60405180910390fd5b5b6127f8613a7a565b8661281f57604051806060016040528087815260200186815260200185815250905061286a565b60405180606001604052806040518060200160405280600081525081526020016040518060200160405280600081525081526020016040518060200160405280600081525081525090505b6004600081548092919061287d90614b54565b919050555060006040518060e001604052808b815260200160045481526020013373ffffffffffffffffffffffffffffffffffffffff1681526020018a8152602001858152602001428152602001838152509050600260008b8152602001908152602001600020819080600181540180825580915050600190039060005260206000209060090201600090919091909150600082015181600001556020820151816001015560408201518160020160006101000a81548173ffffffffffffffffffffffffffffffffffffffff021916908373ffffffffffffffffffffffffffffffffffffffff160217905550606082015181600301908161297e9190614fa9565b506080820151816004015560a0820151816005015560c08201518160060160008201518160000190816129b19190614fa9565b5060208201518160010190816129c79190614fa9565b5060408201518160020190816129dd9190614fa9565b50505050506000808b81526020019081526020016000206006016000815480929190612a0890614b54565b91905055506000600560009054906101000a900473ffffffffffffffffffffffffffffffffffffffff1673ffffffffffffffffffffffffffffffffffffffff1684604051612a55906150ac565b60006040518083038185875af1925050503d8060008114612a92576040519150601f19603f3d011682016040523d82523d6000602084013e612a97565b606091505b5050905080612adb576040517f08c379a0000000000000000000000000000000000000000000000000000000008152600401612ad29061510d565b60405180910390fd5b60008060008d815260200190815260200160002060020160009054906101000a900473ffffffffffffffffffffffffffffffffffffffff1673ffffffffffffffffffffffffffffffffffffffff168587612b359190614a91565b604051612b41906150ac565b60006040518083038185875af1925050503d8060008114612b7e576040519150601f19603f3d011682016040523d82523d6000602084013e612b83565b606091505b5050905080612bc7576040517f08c379a0000000000000000000000000000000000000000000000000000000008152600401612bbe9061519f565b60405180910390fd5b8486612bd39190614a91565b6000808e81526020019081526020016000206005016000828254612bf79190614a5d565b925050819055503373ffffffffffffffffffffffffffffffffffffffff166004548d7f206aa7a09b5bc19a61166b2e7083cfc79403d93bc0f71dacdfbd79ee8825640b8d604051612c4891906151bf565b60405180910390a4505050505050505050505050565b600654341015612ca3576040517f08c379a0000000000000000000000000000000000000000000000000000000008152600401612c9a9061524c565b60405180910390fd5b6000885111612ce7576040517f08c379a0000000000000000000000000000000000000000000000000000000008152600401612cde906152b8565b60405180910390fd5b612cef613a7a565b6000151586151503612d1d576040518060600160405280868152602001858152602001848152509050612d68565b60405180606001604052806040518060200160405280600081525081526020016040518060200160405280600081525081526020016040518060200160405280600081525081525090505b60036000815480929190612d7b90614b54565b9190505550600080600060035481526020019081526020016000209050600354816000018190555089816001019081612db49190614fa9565b50338160020160006101000a81548173ffffffffffffffffffffffffffffffffffffffff021916908373ffffffffffffffffffffffffffffffffffffffff160217905550888160020160146101000a81548160ff0219169083151502179055506000151588151503612e7057428311612e62576040517f08c379a0000000000000000000000000000000000000000000000000000000008152600401612e5990615324565b60405180910390fd5b828160030181905550612e7b565b600081600301819055505b42816004018190555081816007016000820151816000019081612e9e9190614fa9565b506020820151816001019081612eb49190614fa9565b506040820151816002019081612eca9190614fa9565b509050506000816006018190555060008160050181905550600160003373ffffffffffffffffffffffffffffffffffffffff1673ffffffffffffffffffffffffffffffffffffffff1681526020019081526020016000206003549080600181540180825580915050600190039060005260206000200160009091909190915055600560009054906101000a900473ffffffffffffffffffffffffffffffffffffffff1673ffffffffffffffffffffffffffffffffffffffff166108fc6006549081150290604051600060405180830381858888f19350505050158015612fb4573d6000803e3d6000fd5b503373ffffffffffffffffffffffffffffffffffffffff166003547f5c57612a0f1e2744d924b4cb0d2f4f5a68c6647c2a0b9038e1a4404f5f9889e98b604051612ffe91906151bf565b60405180910390a350505050505050505050565b6001602052816000526040600020818154811061302e57600080fd5b90600052602060002001600091509150505481565b60606000806000848152602001908152602001600020600001540361309d576040517f08c379a000000000000000000000000000000000000000000000000000000000815260040161309490614910565b60405180910390fd5b600060026000848152602001908152602001600020805480602002602001604051908101604052809291908181526020016000905b828210156133de57838290600052602060002090600902016040518060e001604052908160008201548152602001600182015481526020016002820160009054906101000a900473ffffffffffffffffffffffffffffffffffffffff1673ffffffffffffffffffffffffffffffffffffffff1673ffffffffffffffffffffffffffffffffffffffff16815260200160038201805461316f90614b23565b80601f016020809104026020016040519081016040528092919081815260200182805461319b90614b23565b80156131e85780601f106131bd576101008083540402835291602001916131e8565b820191906000526020600020905b8154815290600101906020018083116131cb57829003601f168201915b5050505050815260200160048201548152602001600582015481526020016006820160405180606001604052908160008201805461322590614b23565b80601f016020809104026020016040519081016040528092919081815260200182805461325190614b23565b801561329e5780601f106132735761010080835404028352916020019161329e565b820191906000526020600020905b81548152906001019060200180831161328157829003601f168201915b505050505081526020016001820180546132b790614b23565b80601f01602080910402602001604051908101604052809291908181526020018280546132e390614b23565b80156133305780601f1061330557610100808354040283529160200191613330565b820191906000526020600020905b81548152906001019060200180831161331357829003601f168201915b5050505050815260200160028201805461334990614b23565b80601f016020809104026020016040519081016040528092919081815260200182805461337590614b23565b80156133c25780601f10613397576101008083540402835291602001916133c2565b820191906000526020600020905b8154815290600101906020018083116133a557829003601f168201915b50505050508152505081525050815260200190600101906130d2565b50505050905080915050919050565b6002602052816000526040600020818154811061340957600080fd5b9060005260206000209060090201600091509150508060000154908060010154908060020160009054906101000a900473ffffffffffffffffffffffffffffffffffffffff169080600301805461345f90614b23565b80601f016020809104026020016040519081016040528092919081815260200182805461348b90614b23565b80156134d85780601f106134ad576101008083540402835291602001916134d8565b820191906000526020600020905b8154815290600101906020018083116134bb57829003601f168201915b5050505050908060040154908060050154908060060160405180606001604052908160008201805461350990614b23565b80601f016020809104026020016040519081016040528092919081815260200182805461353590614b23565b80156135825780601f1061355757610100808354040283529160200191613582565b820191906000526020600020905b81548152906001019060200180831161356557829003601f168201915b5050505050815260200160018201805461359b90614b23565b80601f01602080910402602001604051908101604052809291908181526020018280546135c790614b23565b80156136145780601f106135e957610100808354040283529160200191613614565b820191906000526020600020905b8154815290600101906020018083116135f757829003601f168201915b5050505050815260200160028201805461362d90614b23565b80601f016020809104026020016040519081016040528092919081815260200182805461365990614b23565b80156136a65780601f1061367b576101008083540402835291602001916136a6565b820191906000526020600020905b81548152906001019060200180831161368957829003601f168201915b505050505081525050905087565b600560009054906101000a900473ffffffffffffffffffffffffffffffffffffffff1681565b60008060008781526020019081526020016000206000015403613732576040517f08c379a000000000000000000000000000000000000000000000000000000000815260040161372990614910565b60405180910390fd5b3373ffffffffffffffffffffffffffffffffffffffff1660008087815260200190815260200160002060020160009054906101000a900473ffffffffffffffffffffffffffffffffffffffff1673ffffffffffffffffffffffffffffffffffffffff16146137d5576040517f08c379a00000000000000000000000000000000000000000000000000000000081526004016137cc90614c0e565b60405180910390fd5b6000845111613819576040517f08c379a0000000000000000000000000000000000000000000000000000000008152600401613810906152b8565b60405180910390fd5b83600080878152602001908152602001600020600101908161383b9190614fa9565b508260008087815260200190815260200160002060020160146101000a81548160ff0219169083151502179055508160008087815260200190815260200160002060020160156101000a81548160ff021916908315150217905550816138f8574281116138dd576040517f08c379a00000000000000000000000000000000000000000000000000000000081526004016138d4906153b6565b60405180910390fd5b80600080878152602001908152602001600020600301819055505b3373ffffffffffffffffffffffffffffffffffffffff16857f7efcd584d754868147c016075599eb11004d9670d0c50b135fbdb1303dec020760405160405180910390a35050505050565b6040518060e001604052806000815260200160008152602001600073ffffffffffffffffffffffffffffffffffffffff168152602001606081526020016000815260200160008152602001613996613a7a565b81525090565b5080546139a890614b23565b6000825580601f106139ba57506139d9565b601f0160209004906000526020600020908101906139d89190613a9b565b5b50565b50805460008255600902906000526020600020908101906139fd9190613ab8565b50565b6040518061016001604052806000815260200160608152602001600073ffffffffffffffffffffffffffffffffffffffff16815260200160001515815260200160001515815260200160008152602001600081526020016000815260200160008152602001613a6d613a7a565b8152602001606081525090565b60405180606001604052806060815260200160608152602001606081525090565b5b80821115613ab4576000816000905550600101613a9c565b5090565b5b80821115613b595760008082016000905560018201600090556002820160006101000a81549073ffffffffffffffffffffffffffffffffffffffff0219169055600382016000613b09919061399c565b600482016000905560058201600090556006820160008082016000613b2e919061399c565b600182016000613b3e919061399c565b600282016000613b4e919061399c565b505050600901613ab9565b5090565b6000604051905090565b600080fd5b600080fd5b6000819050919050565b613b8481613b71565b8114613b8f57600080fd5b50565b600081359050613ba181613b7b565b92915050565b600080600060608486031215613bc057613bbf613b67565b5b6000613bce86828701613b92565b9350506020613bdf86828701613b92565b9250506040613bf086828701613b92565b9150509250925092565b600081519050919050565b600082825260208201905092915050565b6000819050602082019050919050565b613c2f81613b71565b82525050565b600073ffffffffffffffffffffffffffffffffffffffff82169050919050565b6000613c6082613c35565b9050919050565b613c7081613c55565b82525050565b600081519050919050565b600082825260208201905092915050565b60005b83811015613cb0578082015181840152602081019050613c95565b60008484015250505050565b6000601f19601f8301169050919050565b6000613cd882613c76565b613ce28185613c81565b9350613cf2818560208601613c92565b613cfb81613cbc565b840191505092915050565b60006060830160008301518482036000860152613d238282613ccd565b91505060208301518482036020860152613d3d8282613ccd565b91505060408301518482036040860152613d578282613ccd565b9150508091505092915050565b600060e083016000830151613d7c6000860182613c26565b506020830151613d8f6020860182613c26565b506040830151613da26040860182613c67565b5060608301518482036060860152613dba8282613ccd565b9150506080830151613dcf6080860182613c26565b5060a0830151613de260a0860182613c26565b5060c083015184820360c0860152613dfa8282613d06565b9150508091505092915050565b6000613e138383613d64565b905092915050565b6000602082019050919050565b6000613e3382613bfa565b613e3d8185613c05565b935083602082028501613e4f85613c16565b8060005b85811015613e8b5784840389528151613e6c8582613e07565b9450613e7783613e1b565b925060208a01995050600181019050613e53565b50829750879550505050505092915050565b60006020820190508181036000830152613eb78184613e28565b905092915050565b600060208284031215613ed557613ed4613b67565b5b6000613ee384828501613b92565b91505092915050565b613ef581613b71565b82525050565b6000602082019050613f106000830184613eec565b92915050565b600082825260208201905092915050565b6000613f3282613c76565b613f3c8185613f16565b9350613f4c818560208601613c92565b613f5581613cbc565b840191505092915050565b6000613f6b82613c35565b9050919050565b613f7b81613f60565b82525050565b60008115159050919050565b613f9681613f81565b82525050565b60006060830160008301518482036000860152613fb98282613ccd565b91505060208301518482036020860152613fd38282613ccd565b91505060408301518482036040860152613fed8282613ccd565b9150508091505092915050565b600061014082019050614010600083018d613eec565b8181036020830152614022818c613f27565b9050614031604083018b613f72565b61403e606083018a613f8d565b61404b6080830189613f8d565b61405860a0830188613eec565b61406560c0830187613eec565b61407260e0830186613eec565b614080610100830185613eec565b8181036101208301526140938184613f9c565b90509b9a5050505050505050505050565b600080604083850312156140bb576140ba613b67565b5b60006140c985828601613b92565b92505060206140da85828601613b92565b9150509250929050565b600081519050919050565b600082825260208201905092915050565b6000819050602082019050919050565b61411981613f60565b82525050565b61412881613f81565b82525050565b600082825260208201905092915050565b600061414a82613bfa565b614154818561412e565b93508360208202850161416685613c16565b8060005b858110156141a257848403895281516141838582613e07565b945061418e83613e1b565b925060208a0199505060018101905061416a565b50829750879550505050505092915050565b6000610160830160008301516141cd6000860182613c26565b50602083015184820360208601526141e58282613ccd565b91505060408301516141fa6040860182614110565b50606083015161420d606086018261411f565b506080830151614220608086018261411f565b5060a083015161423360a0860182613c26565b5060c083015161424660c0860182613c26565b5060e083015161425960e0860182613c26565b5061010083015161426e610100860182613c26565b506101208301518482036101208601526142888282613d06565b9150506101408301518482036101408601526142a4828261413f565b9150508091505092915050565b60006142bd83836141b4565b905092915050565b6000602082019050919050565b60006142dd826140e4565b6142e781856140ef565b9350836020820285016142f985614100565b8060005b85811015614335578484038952815161431685826142b1565b9450614321836142c5565b925060208a019950506001810190506142fd565b50829750879550505050505092915050565b6000602082019050818103600083015261436181846142d2565b905092915050565b61437281613c55565b811461437d57600080fd5b50565b60008135905061438f81614369565b92915050565b6000602082840312156143ab576143aa613b67565b5b60006143b984828501614380565b91505092915050565b600080fd5b600080fd5b7f4e487b7100000000000000000000000000000000000000000000000000000000600052604160045260246000fd5b61440482613cbc565b810181811067ffffffffffffffff82111715614423576144226143cc565b5b80604052505050565b6000614436613b5d565b905061444282826143fb565b919050565b600067ffffffffffffffff821115614462576144616143cc565b5b61446b82613cbc565b9050602081019050919050565b82818337600083830152505050565b600061449a61449584614447565b61442c565b9050828152602081018484840111156144b6576144b56143c7565b5b6144c1848285614478565b509392505050565b600082601f8301126144de576144dd6143c2565b5b81356144ee848260208601614487565b91505092915050565b61450081613f81565b811461450b57600080fd5b50565b60008135905061451d816144f7565b92915050565b60008060008060008060c087890312156145405761453f613b67565b5b600061454e89828a01613b92565b965050602087013567ffffffffffffffff81111561456f5761456e613b6c565b5b61457b89828a016144c9565b955050604061458c89828a0161450e565b945050606087013567ffffffffffffffff8111156145ad576145ac613b6c565b5b6145b989828a016144c9565b935050608087013567ffffffffffffffff8111156145da576145d9613b6c565b5b6145e689828a016144c9565b92505060a087013567ffffffffffffffff81111561460757614606613b6c565b5b61461389828a016144c9565b9150509295509295509295565b600080600080600080600080610100898b03121561464157614640613b67565b5b600089013567ffffffffffffffff81111561465f5761465e613b6c565b5b61466b8b828c016144c9565b985050602061467c8b828c0161450e565b975050604061468d8b828c0161450e565b965050606061469e8b828c0161450e565b955050608089013567ffffffffffffffff8111156146bf576146be613b6c565b5b6146cb8b828c016144c9565b94505060a089013567ffffffffffffffff8111156146ec576146eb613b6c565b5b6146f88b828c016144c9565b93505060c089013567ffffffffffffffff81111561471957614718613b6c565b5b6147258b828c016144c9565b92505060e06147368b828c01613b92565b9150509295985092959890939650565b6000806040838503121561475d5761475c613b67565b5b600061476b85828601614380565b925050602061477c85828601613b92565b9150509250929050565b61478f81613c55565b82525050565b600060e0820190506147aa600083018a613eec565b6147b76020830189613eec565b6147c46040830188614786565b81810360608301526147d68187613f27565b90506147e56080830186613eec565b6147f260a0830185613eec565b81810360c08301526148048184613f9c565b905098975050505050505050565b60006020820190506148276000830184613f72565b92915050565b600080600080600060a0868803121561484957614848613b67565b5b600061485788828901613b92565b955050602086013567ffffffffffffffff81111561487857614877613b6c565b5b614884888289016144c9565b94505060406148958882890161450e565b93505060606148a68882890161450e565b92505060806148b788828901613b92565b9150509295509295909350565b7f506f737420646f6573206e6f7420657869737400000000000000000000000000600082015250565b60006148fa601383613f16565b9150614905826148c4565b602082019050919050565b60006020820190508181036000830152614929816148ed565b9050919050565b7f496e76616c6964207374617274496e6465780000000000000000000000000000600082015250565b6000614966601283613f16565b915061497182614930565b602082019050919050565b6000602082019050818103600083015261499581614959565b9050919050565b7f42617463682073697a65206d7573742062652067726561746572207468616e2060008201527f3000000000000000000000000000000000000000000000000000000000000000602082015250565b60006149f8602183613f16565b9150614a038261499c565b604082019050919050565b60006020820190508181036000830152614a27816149eb565b9050919050565b7f4e487b7100000000000000000000000000000000000000000000000000000000600052601160045260246000fd5b6000614a6882613b71565b9150614a7383613b71565b9250828201905080821115614a8b57614a8a614a2e565b5b92915050565b6000614a9c82613b71565b9150614aa783613b71565b9250828203905081811115614abf57614abe614a2e565b5b92915050565b7f4e487b7100000000000000000000000000000000000000000000000000000000600052603260045260246000fd5b7f4e487b7100000000000000000000000000000000000000000000000000000000600052602260045260246000fd5b60006002820490506001821680614b3b57607f821691505b602082108103614b4e57614b4d614af4565b5b50919050565b6000614b5f82613b71565b91507fffffffffffffffffffffffffffffffffffffffffffffffffffffffffffffffff8203614b9157614b90614a2e565b5b600182019050919050565b7f596f7520617265206e6f7420746865206f776e6572206f66207468697320706f60008201527f7374000000000000000000000000000000000000000000000000000000000000602082015250565b6000614bf8602283613f16565b9150614c0382614b9c565b604082019050919050565b60006020820190508181036000830152614c2781614beb565b9050919050565b7f4e487b7100000000000000000000000000000000000000000000000000000000600052603160045260246000fd5b7f526573706f6e736520636f6e74656e742063616e6e6f7420626520656d707479600082015250565b6000614c93602083613f16565b9150614c9e82614c5d565b602082019050919050565b60006020820190508181036000830152614cc281614c86565b9050919050565b6000614cd482613b71565b9150614cdf83613b71565b9250828202614ced81613b71565b91508282048414831517614d0457614d03614a2e565b5b5092915050565b7f4e487b7100000000000000000000000000000000000000000000000000000000600052601260045260246000fd5b6000614d4582613b71565b9150614d5083613b71565b925082614d6057614d5f614d0b565b5b828204905092915050565b7f45746865722073656e74206d757374206265206d6f7265207468616e20706c6160008201527f74666f726d206665650000000000000000000000000000000000000000000000602082015250565b6000614dc7602983613f16565b9150614dd282614d6b565b604082019050919050565b60006020820190508181036000830152614df681614dba565b9050919050565b60008190508160005260206000209050919050565b60006020601f8301049050919050565b600082821b905092915050565b600060088302614e5f7fffffffffffffffffffffffffffffffffffffffffffffffffffffffffffffffff82614e22565b614e698683614e22565b95508019841693508086168417925050509392505050565b6000819050919050565b6000614ea6614ea1614e9c84613b71565b614e81565b613b71565b9050919050565b6000819050919050565b614ec083614e8b565b614ed4614ecc82614ead565b848454614e2f565b825550505050565b600090565b614ee9614edc565b614ef4818484614eb7565b505050565b5b81811015614f1857614f0d600082614ee1565b600181019050614efa565b5050565b601f821115614f5d57614f2e81614dfd565b614f3784614e12565b81016020851015614f46578190505b614f5a614f5285614e12565b830182614ef9565b50505b505050565b600082821c905092915050565b6000614f8060001984600802614f62565b1980831691505092915050565b6000614f998383614f6f565b9150826002028217905092915050565b614fb282613c76565b67ffffffffffffffff811115614fcb57614fca6143cc565b5b614fd58254614b23565b614fe0828285614f1c565b600060209050601f8311600181146150135760008415615001578287015190505b61500b8582614f8d565b865550615073565b601f19841661502186614dfd565b60005b8281101561504957848901518255600182019150602085019450602081019050615024565b868310156150665784890151615062601f891682614f6f565b8355505b6001600288020188555050505b505050505050565b600081905092915050565b50565b600061509660008361507b565b91506150a182615086565b600082019050919050565b60006150b782615089565b9150819050919050565b7f4661696c656420746f2073656e6420706c6174666f726d206665650000000000600082015250565b60006150f7601b83613f16565b9150615102826150c1565b602082019050919050565b60006020820190508181036000830152615126816150ea565b9050919050565b7f4661696c656420746f2073656e6420657468657220746f20706f7374206f776e60008201527f6572000000000000000000000000000000000000000000000000000000000000602082015250565b6000615189602283613f16565b91506151948261512d565b604082019050919050565b600060208201905081810360008301526151b88161517c565b9050919050565b60006020820190506151d46000830184613f8d565b92915050565b7f496e73756666696369656e742062616c616e636520746f20637265617465207460008201527f686520706f737400000000000000000000000000000000000000000000000000602082015250565b6000615236602783613f16565b9150615241826151da565b604082019050919050565b6000602082019050818103600083015261526581615229565b9050919050565b7f506f737420636f6e74656e742063616e6e6f7420626520656d70747900000000600082015250565b60006152a2601c83613f16565b91506152ad8261526c565b602082019050919050565b600060208201905081810360008301526152d181615295565b9050919050565b7f4e6565647320746f2062652073657420696e2074686520667574757265000000600082015250565b600061530e601d83613f16565b9150615319826152d8565b602082019050919050565b6000602082019050818103600083015261533d81615301565b9050919050565b7f416363657074696e6720756e74696c206d75737420626520696e20746865206660008201527f7574757265000000000000000000000000000000000000000000000000000000602082015250565b60006153a0602583613f16565b91506153ab82615344565b604082019050919050565b600060208201905081810360008301526153cf81615393565b905091905056fea26469706673582212205cc7f229a876157ee5fc627b9bceea7d2db7150ba1c921812cf8e3a226e5608f64736f6c634300081b0033",
  "linkReferences": {},
  "deployedLinkReferences": {}
}